:020000040800F2
:10000000B0100020AD010008DF0F0008130F00083A
:10001000DD0F0008B9020008971600080000000074
:10002000000000000000000000000000E5150008CE
:100030003903000800000000DD130008FF15000868
:10004000C7010008C7010008C7010008C701000870
:10005000C7010008C7010008C7010008C701000860
:10006000C7010008C7010008C7010008C701000850
:10007000C7010008C7010008C7010008C701000840
:10008000C7010008C7010008C70100080000000000
:10009000000000000000000000000000C701000890
:1000A000C7010008C7010008C7010008C701000810
:1000B000C7010008C7010008C7010008C701000800
:1000C000C7010008C7010008C7010008C7010008F0
:1000D000C7010008C7010008C701000800000000B0
:1000E000C7010008C7010008C701000800000000A0
:1000F000000000000000000000000000C701000830
:1001000000000000C7010008C7010008C70100087F
:1001100000000000000000000000000000000000DF
:10012000C7010008C7010008C7010008C70100088F
:10013000C7010008000000000000000000000000EF
:10014000000000000000000000000000C7010008DF
:10015000C7010008C7010008C7010008C70100085F
:10016000C7010008C70100080000000000000000EF
:10017000000000000000000000000000000000007F
:1001800000000000C701000800000000000000009F
:10019000C7010008C7010008DFF80CD000F07AF8AA
:1001A000004800470D170008B0100020064880479F
:1001B00006480047FEE7FEE7FEE7FEE7FEE7FEE74C
:1001C000FEE7FEE7FEE7FEE7951600089901000846
:1001D0002DE9F05F0546002092469B46884606467C
:1001E000814640241BE0284641464746224600F00F
:1001F00041F853465A46C01A914110D31146184649
:10020000224600F028F82D1A67EB01084F462246D7
:100210000120002100F01FF817EB00094E41201EBD
:10022000A4F10104DFDC484631462A464346BDE8D6
:10023000F09FD2B201E000F8012B491EFBD27047BB
:100240000022F6E710B513460A4604461946FFF7A2
:10025000F0FF204610BD202A04DB203A00FA02F10C
:10026000002070479140C2F1200320FA03F31943A4
:1002700090407047202A04DB203A21FA02F0002146
:10028000704721FA02F3D040C2F1200291400843A6
:1002900019467047064C074D06E0E06840F0010340
:1002A00094E8070098471034AC42F6D3FFF778FF84
:1002B0001418000834180008FEE72DE9F0410E4636
:1002C000074615460421052000F02AF800210120E8
:1002D00001F0E2F980210A2001F085F9002405E00F
:1002E000395D092001F0D8F9641CE4B2B442F7D3B7
:1002F0000321012001F0D0F9FF24052001F070F85E
:10030000641E14F0FF0401D04007F6D5222001F04E
:1003100067F82870212001F063F86870BDE8F0816B
:1003200070B50C46054601F05BF820EA040128464A
:10033000BDE8704001F0B0B97047000070B50446E8
:1003400000F004F90546601C02D00448007804441B
:1003500000F0FCF8401BA042FAD370BD240000203E
:100360002DE9F84FDFF8B8A1002201240AF1040BAF
:1003700003254FF00F090BF1040E00BF0B6804FAC0
:1003800002F63340B34273D10F7907F00307012F10
:1003900001D0022F16D187684FEA420805FA08FCFF
:1003A00027EA0C07D1F80CC00CFA08FC4CEA070C41
:1003B000C0F808C04768B7430E79C6F300169640E8
:1003C0003E4346600E79F643B6070DD0C768560027
:1003D00005FA06FC27EA0C07D1F808C00CFA06FC5F
:1003E0004CEA070CC0F80CC00E7906F00306022E8A
:1003F00010D1D60800EB8608D8F8206057074FEADE
:10040000D76C09FA0CF7BE430F6907FA0CF73743AC
:10041000C8F8207006684FEA420C05FA0CF7BE4394
:100420000F7907F0030707FA0CF7374307604E68A8
:1004300016F4403F6DD03B4E376847F48047376035
:10044000366822F0030706F480460096364E07EB26
:10045000060CDCF8086897073F0F09FA07F826EA48
:100460000806DFF8C880404503D14FF000081EE0C1
:100470004FE0DFF8BC80404502D14FF0010816E0A4
:10048000DFF8B080404502D14FF002080FE0DFF8FE
:10049000A880404502D14FF0030808E0DFF89C80B7
:1004A000404502D14FF0040801E04FF0070808FA78
:1004B00007F848EA0608CCF80888DAF800605746DA
:1004C000D1F804C09E435FEACC3C00D51E433E6099
:1004D000DBF800605F46D1F804C09E435FEA8C3CC5
:1004E00000D51E433E60DEF800607746D1F804C0B8
:1004F0009E435FEACC2C00D51E433E60084F0C376C
:100500003E68D1F804C09E435FEA8C2C00D51E43A0
:100510003E60521C102AFFF431AFBDE8F88F000096
:10052000003C0140443802400030014000000240DD
:100530000004024000080240000C0240001002408B
:100540000AB1816170470904FBE700000148806837
:10055000704700002400002002488168027811449E
:1005600081607047240000200B4810B5016841F4F9
:1005700000710160016841F480610160016841F42B
:1005800080710160032000F061F80F2000F006F890
:1005900000F024F8002010BD003C024070B50D4D65
:1005A00004464FF47A712878B1FBF0F00A490968E3
:1005B000B1FBF0F000F099FC48B9102C07D20022F2
:1005C0002146501E00F022F800206C6070BD012012
:1005D00070BD000024000020300000200A4808B54B
:1005E000016841F480410160006800F4804000909F
:1005F0000548001F016841F080510160006800F06B
:100600008050009008BD000044380240F0B40E4B0A
:100610001B680C46C3F30223C3F10705042D00D960
:100620000425191D072901D2002300E0DB1E012645
:1006300006FA05F1491E214099409E40761E16405B
:100640003143F0BC01F042B80CED00E0064900F087
:10065000070208684FF6FF03184040EA0220034AE9
:1006600010430860704700000CED00E00000FA0540
:100670002DE9F0470E46050065D0DFF81481D8F863
:100680000000F7B200F00700B04207D288F800700F
:10069000D8F8000000F00700B04254D128683D4C63
:1006A000810712D5400703D5206840F4E050206050
:1006B0002878000703D5206840F460402060206857
:1006C000A96820F0F000084320602878C0072DD0EA
:1006D000304968680839012812D0022813D003284D
:1006E00011D00968890700292DDA216821F003015A
:1006F00001432160FFF72AFF814641F2883A0EE06C
:1007000009688903EFE709688901ECE7FFF71EFF35
:10071000A0EB0901514502D90320BDE8F08720680C
:10072000696800F00C00B0EB810FEFD1D8F8001031
:10073000404601F00701B14207D90770006800F098
:100740000700B04201D00120E7E72878400705D52F
:100750002068E96820F4E05008432060287800070A
:1007600006D52068296920F4604040EAC100206075
:1007700000F018F82168084AC1F30311515CC84021
:100780000649086006480068FFF708FF0020C4E734
:10079000003C0240083802400418000830000020E5
:1007A00028000020154810B5006810F00C0214480D
:1007B00013D01449042A0FD0082A0ED10F4C241F3D
:1007C0002268236802F03F025B0207D52068C0F36D
:1007D0008810A0FB010106E0084610BD2168C1F3A6
:1007E0008811A1FB00010023FFF7F2FC2168C1F38F
:1007F0000141491C4900B0FBF1F010BD083802402E
:100800000024F40040787D012DE9F84F04006ED0FB
:100810002078DFF84C93C007A9F104054AD009F10C
:1008200004000168C1F38101012908D00068C0F308
:10083000810002280AD1D9F80000400206D52868B4
:10084000800337D560680028E1D033E06068B0F5F8
:10085000803F10D0B0F5A02F286810D020F4803051
:100860002860286820F4802028606068A8B1FFF71D
:100870006DFE06460DE0286840F48030F4E740F451
:1008800080202860F7E700BFFFF760FE801B642828
:1008900073D828688003F7D50CE0FFF757FE0646AB
:1008A00005E000BFFFF752FE801B6428F0D82868DF
:1008B0008003F7D42078DFF8AC8280074FF0000A7D
:1008C0003ED5A748001D016811F00C0F08D0006844
:1008D000C0F3810002280BD1D9F80000400207D4F0
:1008E0002868800716D5E068012800D112E033E1BE
:1008F000E068B8B10120C8F80000FFF727FE0646FF
:1009000005E000BFFFF722FE801B0228C0D8286840
:100910008007F7D52868216920F0F80040EAC10077
:1009200028600DE0C8F800A0FFF710FE064604E0BE
:10093000FFF70CFE801B02281FD828688007F7D419
:100940002078000722D5864F87486169703771B1DA
:1009500001210160FFF7FAFD064604E0FFF7F6FD0E
:10096000801B022809D838688007F7D50EE0C0F848
:1009700000A0FFF7EBFD064605E082E0FFF7E6FD8D
:10098000801B02287DD838688007F7D4207840077C
:1009900068D5DFF8CCB100270BF13C0BDBF8000089
:1009A000C0000BD4DBF8001041F08051CBF80010F0
:1009B000DBF80000012700F0805000906B4E30689B
:1009C000C00510D4306840F480703060FFF7BEFD81
:1009D000009005E0FFF7BAFD0099401A022850D8B0
:1009E0003068C005F6D55E4EA0686C3601280FD081
:1009F0000528306810D020F001003060306820F009
:100A000004003060A068B8B1FFF7A0FD00900FE0CF
:100A1000306840F00100F4E740F004003060F7E790
:100A2000FFF794FD0099411A41F28830814266D85F
:100A300030688007F4D50EE0FFF788FD009007E0EE
:100A4000FFF784FD0099411A41F28830814256D85F
:100A500030688007F4D42FB1DBF8001021F080510A
:100A6000CBF80010A069C8B33D49091D0968C1F35E
:100A7000810102294AD00228504607D0C8F86000F8
:100A800000E03CE0FFF762FD04463BE04746C8F863
:100A90006000FFF75BFD064605E000BFFFF756FD6F
:100AA000801B02282BD828688001F7D4D4E90701DD
:100AB0000843A16A2E4A490802EB0141626A41EAF1
:100AC0008211084394F82C1040EA0161C9F8001023
:100AD00001203866FFF73AFD044606E03EE000BF1D
:100AE000FFF734FD001B022809D828688001F7D5DC
:100AF00034E000BFFFF72AFD001B022802D90320C3
:100B0000BDE8F88F28688001F4D427E00128F7D0E9
:100B1000D9F80000E26900F4800191421CD1226AF8
:100B200000F03F01914217D147F6C071626A01405F
:100B3000B1EB821F10D1A26A4FF0FF3300F44031B5
:100B400003EB5202B1EB024F06D194F82C1000F0E7
:100B50007060B0EB016F01D00120D1E70020CFE73A
:100B60000438024000004742800E474200700040B7
:100B70000000FFFF70B5040009D0606A002540B195
:100B800025616561A56294F8510040B10CE0012037
:100B900070BD6068B0F5827FF4D0E561F2E784F85B
:100BA0005050204600F044F8022084F8510020689C
:100BB000016821F040010160A088218900F4827061
:100BC00001F404410843A18901F400610843217C38
:100BD00001F002010843217D01F001010843218B4E
:100BE00001F400710843217F01F03801084394F8B3
:100BF000201001F080010843218D01F400510843C9
:100C000021680860A069042101EA104094F82410CA
:100C100001F010010843216848602068C16921F48F
:100C20000061C1616565012084F85100002070BD3C
:100C30002DE9F0410068314986B088425BD13048E7
:100C4000016841F480510160006800F48050059013
:100C50002B481438016841F001010160016801F07E
:100C600001010591016841F001010160016801F095
:100C700001010591016841F001010160016801F085
:100C800001010591016841F001010160006801273F
:100C900000F0010005901020CDE90007DFF8648026
:100CA0000224694603944046FFF75AFB2020CDE911
:100CB000000403250526CDE9035669464046FFF7A3
:100CC0004FFB8020CDE90004CDE90356694640463C
:100CD000FFF746FB4020CDE90004CDE90356694605
:100CE0004046FFF73DFB0820CDE900076946039425
:100CF0004046FFF735FB06B0BDE8F081003001400B
:100D000044380240000002402DE9F84F044690F8B4
:100D1000500000270A9E1D4692468B464FF001095F
:100D200001280ED0012084F85000FFF70FFC804608
:100D300094F85100616801280CD0B1F5827F07D189
:100D400002E00220BDE8F88FA16809B9042801D0AB
:100D50000227C2E0BBF1000F27D0BAF1000F24D068
:100D60001DB394F85100042802D0052084F85100E6
:100D700000206065C4F838A0E587A587C4F830B0C6
:100D8000E586A5862064606420680168490603D46E
:100D9000016841F040010160E068B0F5006F6068F3
:100DA00005D0E8B3012D46D07FE0012795E008B1DA
:100DB000012D39D1206B21680088C860206B801C10
:100DC0002063E08E401EE0862EE02068816889075F
:100DD0000FD5E18E69B1B9F1010F0AD1216B0988F4
:100DE000C160206B801C2063E08E401EE0864FF0C7
:100DF000000920688168C9070CD0E18F51B1C06833
:100E0000A16B0880A06B801CA063E08F401EE08770
:100E10004FF00109FFF79AFBA0EB0800B04200E099
:100E200009E001D3701C50D1E08E0028CDD1E08FB5
:100E30000028CAD13FE0206B216800780873206B3E
:100E4000401C2063E08E401EE0862EE02068816812
:100E500089070FD5E18E69B1B9F1010F0AD1216B74
:100E600009780173206B401C2063E08E401EE086F1
:100E70004FF0000920688168C9070CD0E18F51B19B
:100E8000C068A16B0870A06B401CA063E08F401E7F
:100E9000E0874FF00109FFF759FBA0EB0800B042D3
:100EA00002D3701C01D010E07EB1E08E0028CDD1BD
:100EB000E08F0028CAD142463146204600F0ACFA05
:100EC00028B101272020606507E0032705E0A0681E
:100ED00018B92068C16880680090012084F851002A
:100EE000002084F8500038462CE710B5401EB0F1C1
:100EF000807F01D3012010BD4FF0E02460610F21FD
:100F0000601700F0E3FB0020A061072020610020B3
:100F100010BDFEE710B5412826D108210846FFF78D
:100F2000FFF93D21112000F0B7FB8621172000F0CA
:100F3000B3FB7F21262000F0AFFB1E212D2000F007
:100F4000ABFB00212C2000F0A7FB8D212A2000F014
:100F5000A3FB3E212B2000F09FFB0220FFF7EEF9C0
:100F6000BDE8104000F03CB810BD000030B587B0BF
:100F700014216846FFF764F916480024016841F01F
:100F800004010160016801F004010591016841F06C
:100F900080010160016801F080010591016841F064
:100FA0000101016000680C4D00F001000590002275
:100FB00018212846FFF7C4FA182000900120CDE937
:100FC00001040320039069462846FFF7C9F907B0DA
:100FD00030BD00003038024000000240FEE7FEE76E
:100FE00010B5142000F0FCF9800705D10321BDE8FD
:100FF0001040142000F0F7BA10BD70B50646082165
:1010000088B000240846FFF78BF900210D2000F07E
:1010100043FB80210E20FFF783F993208DF8040015
:1010200020208DF8050006A801AB00900222194689
:101030000C2000F042F8054626280DD1002101A819
:10104000425C7254425C491C5440C9B20429F7D333
:10105000405CA04200D0BB2580210E2000F0C3FAE6
:1010600008B0284670BD30B587B08DF804008DF803
:101070000510002001A9145C0D18401CC0B2AC7012
:101080000628F8D300200C181A5C401CC0B222724B
:101090000628F8D306A800900B460C220E2000F07C
:1010A0000CF80446262804D1082000F099F900071E
:1010B00000D4BB2407B0204630BD2DE9FF5F0027D8
:1010C000BB25DDF838A016468B468146B8460C286D
:1010D00005D0B9F10E0F05D11227102001E07727B6
:1010E0003020804647F08001022000F0D5FA8021B0
:1010F0000420FFF715F90021012000F0CDFA80212E
:101100000A2000F070FA002405E01BF80410092002
:1011100000F0C2FA641CB442F7D34946012000F043
:10112000BBFAB9F10C0F03D180210D2000F05BFA5E
:101130004FF47A76042000F053F90446761E04D06A
:10114000E00702D114EA080FF4D080210D20FFF748
:10115000E7F836B1062000F043F910F01B0F0CD071
:10116000BB2580210C2000F03EFA0021012000F078
:1011700093FA04B02846BDE8F09F26253C40E007DE
:1011800000D0CC25B9F10C0FEBD10A2000F028F9E2
:1011900004460C2000F024F910F007004FEAC401C7
:1011A00001D008390144CAF8001024B1122C04D926
:1011B0001224002603E00124FBE7002605E00920B5
:1011C00000F00EF903998855761CA642F7D3C8E7BC
:1011D00030B587B00D4630218DF8041001AC8DF884
:1011E000050002212046A21CFFF767F806A801AB04
:1011F0000090042219460C20FFF75FFF262802D139
:101200000699902902D0BB2007B030BD0023E15CD5
:10121000E9545B1CDBB2102BF9D3F5E730B50C4673
:101220000546082187B00846FFF77AF807210D2008
:1012300000F032FA0321142000F0D5F906A801AB22
:1012400000908DF80450012219460C20FFF735FF5D
:10125000262802D10699102902D0BB2007B030BD44
:101260009DF8041021709DF805106170F6E70000EC
:1012700010B51F4C012208212046FFF761F901201B
:10128000FFF75CF8002208212046FFF759F90120FA
:10129000FFF754F8012208212046FFF751F90120F9
:1012A000FFF74CF80F21012000F0F6F9012000F0C3
:1012B00097F8C006FAD40120FFF740F83D2111202D
:1012C00000F0EAF91E212D2000F0E6F900212C2083
:1012D00000F0E2F98D212A2000F0DEF93E212B20DA
:1012E00000F0DAF94021BDE81040152000F0D4B933
:1012F0000000024010B588B093218DF804107021D1
:101300008DF8051000218DF80A1001AA5418435CCD
:10131000A370445C9DF80A30491C6340C9B28DF843
:101320000A300429F2D3072101A8D21DFEF7C5FF18
:1013300008210846FEF7F4FF06A801AB0090092239
:1013400019460C20FFF7B9FE262802D10699182964
:1013500000D0BB2008B010BD70B588B00D46A021EC
:101360008DF8041001AC8DF8050002212046A21C66
:10137000FEF7A3FF06AE01AB042219460C2000962F
:10138000FFF79BFE262826D10698042823D19DF836
:10139000040000F00F000A281DD10020295C215410
:1013A000401CC0B21028F9D305AA102101A8FEF7ED
:1013B00084FF01AB122219460C200096FFF77DFE38
:1013C000262808D10699042905D19DF8041001F0BA
:1013D0000F010A2900D0BB2008B070BD7047000083
:1013E00070B57E2101EA40000A4D40F080040022E1
:1013F00010212846FFF7A4F8204600F04FF800F02F
:1014000037F80446012210212846FFF799F82046B4
:1014100070BD00000000024038B504461248134B6E
:101420000068B0FBF3F04FF47A73584300906068A3
:10143000B0F5827F0DD10B4600920022802120461C
:1014400000F042F870B1606D40F02000606503204C
:1014500038BD009830B1401E009020688068C043BD
:101460000006F6D5002038BD3000002000366E01A1
:101470003EB56FF07F40FF2400908DF808400123B7
:1014800001AA02A90448FFF73FFC08B18DF8044007
:101490009DF804003EBD0000540000200EB501235D
:1014A0008DF808006FF07F40009001AA02A905485E
:1014B000FFF72AFC10B1FF208DF804009DF804000E
:1014C0000EBD0000540000202DE9F8431E46914651
:1014D00088460446089DFFF739F8401B351AFFF788
:1014E00035F8074625480068C0F3CB30684338E03C
:1014F000701C37D0FFF72AF8C01BA84203D215B1E1
:10150000009860B32CE02068416821F0E001416060
:101510006068B0F5827F0BD1A068B0F5004F02D0B3
:10152000B0F5806F04D12068016821F040010160AE
:10153000A06AB0F5005F09D12068016821F400516C
:1015400001602068016841F400510160012084F8C5
:101550005100002084F850000320BDE8F8830025E6
:10156000401E00902068816838EA010004D0002104
:101570004945BDD10020F0E70121F9E73000002006
:1015800010B5164C14484FF4007120604FF482706F
:1015900060600020A060E0602061C4E905012821AE
:1015A000C4E907106062A0620A20E0622046FFF7EB
:1015B000E1FA2068016841F040010160084C012215
:1015C00008212046FEF7BCFF20460122BDE810405E
:1015D0001021FEF7B5BF000000300140540000208C
:1015E00000000240704770B50C460546FFF7F8FE54
:1015F00040EA04012846BDE8704000F04DB8FEF70F
:10160000ABBF000030B593B030216846FEF718FE3E
:1016100014210CA8FEF714FE1C480025016841F0B7
:1016200080510160006800F08050119018480168F6
:1016300041F4404101600068022400F440401190F0
:1016400001200090000401908001CDE906400C20AB
:1016500008906020CDE9090404200B906846FFF74C
:10166000D3F808B172B6FEE70CA90F2081E831006B
:101670004FF48050CDE90F0503210CA8FEF7F8FFC9
:10168000002801D072B6FEE713B030BD40380240EA
:10169000007000407047FEE770B50E467E2101EAFB
:1016A0004004094D002210212846FEF749FF20463C
:1016B000FFF7F4FE3046FFF7F1FE2846BDE8704024
:1016C00001221021FEF73CBF000002400907090E6D
:1016D000002804DB00F1E02080F80014704700F0DF
:1016E0000F0000F1E02080F8141D704702E008C8E8
:1016F000121F08C1002AFAD170477047002001E08C
:1017000001C1121F002AFBD170470000FEF72CFF19
:10171000FFF778FFFFF72AFCFFF732FFFFF7A8FD7E
:101720004120FFF7F7FB3549AA2240F201200A7059
:101730004870000A324D8870AC1E4FF4FA7630497A
:101740005220FFF76BFD6070262852D12C48801C78
:10175000FFF753FC26284CD12878042849D1284883
:10176000801CFFF7C7FD262843D1254B07219B1C72
:101770001A1D6120FFF777FC262804D12049072095
:101780001231FFF7E9FD4FF47A70FEF7D7FD1C49DF
:101790005220FFF743FD607026282AD11848801C8C
:1017A000FFF72BFC262824D12878042821D11448BF
:1017B000801CFFF79FFD26281BD1114B05219B1C88
:1017C00003F10A026120FFF74EFC262811D1022006
:1017D0000A49207010310520FFF7FAFC0748103045
:1017E0000078AA2805D005490520FFF7B5FD03209C
:1017F00020703046FEF7A2FDA1E700003400002073
:1018000002000020000000000000000001020304AC
:101810000607080934180008000000203400000002
:10182000EC16000868180008340000207C10000046
:10183000FC1600080000000000000000FFFFFFFF92
:10184000FFFFF5FAF0008818FFFFFFFFFFFF0877A2
:101850008F69F5FAF0008818010000001000000000
:08186000000000000024F40068
:040000050800019955
:00000001FF
